{
  "_format": "hh-sol-artifact-1",
  "contractName": "ARockstarAteMyNFT",
  "sourceName": "contracts/ARockstarAteMyNFT.sol",
  "abi": [
    {
      "inputs": [],
      "stateMutability": "nonpayable",
      "type": "constructor"
    },
    {
      "inputs": [],
      "name": "EmptyArgs",
      "type": "error"
    },
    {
      "inputs": [],
      "name": "EmptySource",
      "type": "error"
    },
    {
      "inputs": [],
      "name": "NoInlineSecrets",
      "type": "error"
    },
    {
      "inputs": [],
      "name": "OnlyRouterCanFulfill",
      "type": "error"
    },
    {
      "inputs": [
        {
          "internalType": "bytes32",
          "name": "requestId",
          "type": "bytes32"
        }
      ],
      "name": "UnexpectedRequestID",
      "type": "error"
    },
    {
      "anonymous": false,
      "inputs": [
        {
          "indexed": false,
          "internalType": "bytes",
          "name": "message",
          "type": "bytes"
        }
      ],
      "name": "Log",
      "type": "event"
    },
    {
      "anonymous": false,
      "inputs": [
        {
          "indexed": true,
          "internalType": "address",
          "name": "from",
          "type": "address"
        },
        {
          "indexed": true,
          "internalType": "address",
          "name": "to",
          "type": "address"
        }
      ],
      "name": "OwnershipTransferRequested",
      "type": "event"
    },
    {
      "anonymous": false,
      "inputs": [
        {
          "indexed": true,
          "internalType": "address",
          "name": "from",
          "type": "address"
        },
        {
          "indexed": true,
          "internalType": "address",
          "name": "to",
          "type": "address"
        }
      ],
      "name": "OwnershipTransferred",
      "type": "event"
    },
    {
      "anonymous": false,
      "inputs": [
        {
          "indexed": true,
          "internalType": "bytes32",
          "name": "id",
          "type": "bytes32"
        }
      ],
      "name": "RequestFulfilled",
      "type": "event"
    },
    {
      "anonymous": false,
      "inputs": [
        {
          "indexed": true,
          "internalType": "bytes32",
          "name": "id",
          "type": "bytes32"
        }
      ],
      "name": "RequestSent",
      "type": "event"
    },
    {
      "inputs": [],
      "name": "acceptOwnership",
      "outputs": [],
      "stateMutability": "nonpayable",
      "type": "function"
    },
    {
      "inputs": [
        {
          "internalType": "string[]",
          "name": "args",
          "type": "string[]"
        }
      ],
      "name": "createSupergroup",
      "outputs": [],
      "stateMutability": "payable",
      "type": "function"
    },
    {
      "inputs": [
        {
          "internalType": "bytes32",
          "name": "requestId",
          "type": "bytes32"
        },
        {
          "internalType": "bytes",
          "name": "response",
          "type": "bytes"
        },
        {
          "internalType": "bytes",
          "name": "err",
          "type": "bytes"
        }
      ],
      "name": "handleOracleFulfillment",
      "outputs": [],
      "stateMutability": "nonpayable",
      "type": "function"
    },
    {
      "inputs": [],
      "name": "owner",
      "outputs": [
        {
          "internalType": "address",
          "name": "",
          "type": "address"
        }
      ],
      "stateMutability": "view",
      "type": "function"
    },
    {
      "inputs": [
        {
          "internalType": "string",
          "name": "accessToken",
          "type": "string"
        },
        {
          "internalType": "uint256",
          "name": "tokenId",
          "type": "uint256"
        }
      ],
      "name": "sellSupergroup",
      "outputs": [],
      "stateMutability": "payable",
      "type": "function"
    },
    {
      "inputs": [
        {
          "internalType": "address",
          "name": "royaltiesAddress",
          "type": "address"
        }
      ],
      "name": "setRoyaltiesAddress",
      "outputs": [],
      "stateMutability": "nonpayable",
      "type": "function"
    },
    {
      "inputs": [
        {
          "internalType": "uint64",
          "name": "subscriptionId",
          "type": "uint64"
        }
      ],
      "name": "setSubscriptionId",
      "outputs": [],
      "stateMutability": "nonpayable",
      "type": "function"
    },
    {
      "inputs": [
        {
          "internalType": "address",
          "name": "supergroupsAddress",
          "type": "address"
        }
      ],
      "name": "setSupergroupsAddress",
      "outputs": [],
      "stateMutability": "nonpayable",
      "type": "function"
    },
    {
      "inputs": [
        {
          "internalType": "address",
          "name": "to",
          "type": "address"
        }
      ],
      "name": "transferOwnership",
      "outputs": [],
      "stateMutability": "nonpayable",
      "type": "function"
    }
  ],
  "bytecode": "0x60a06040526102fd600160146101000a81548167ffffffffffffffff021916908367ffffffffffffffff160217905550736e2dc0f9db014ae19888f539e59285d2ea04244c600460006101000a81548173ffffffffffffffffffffffffffffffffffffffff021916908373ffffffffffffffffffffffffffffffffffffffff1602179055507f66756e2d706f6c79676f6e2d6d756d6261692d3100000000000000000000000060001b600555348015620000b857600080fd5b5033806000600460009054906101000a900473ffffffffffffffffffffffffffffffffffffffff168073ffffffffffffffffffffffffffffffffffffffff1660808173ffffffffffffffffffffffffffffffffffffffff168152505050600073ffffffffffffffffffffffffffffffffffffffff168273ffffffffffffffffffffffffffffffffffffffff160362000187576040517f08c379a00000000000000000000000000000000000000000000000000000000081526004016200017e90620003a7565b60405180910390fd5b816000806101000a81548173ffffffffffffffffffffffffffffffffffffffff021916908373ffffffffffffffffffffffffffffffffffffffff160217905550600073ffffffffffffffffffffffffffffffffffffffff168173ffffffffffffffffffffffffffffffffffffffff16146200020e576200020d816200021760201b60201c565b5b5050506200043b565b3373ffffffffffffffffffffffffffffffffffffffff168173ffffffffffffffffffffffffffffffffffffffff160362000288576040517f08c379a00000000000000000000000000000000000000000000000000000000081526004016200027f9062000419565b60405180910390fd5b80600160006101000a81548173ffffffffffffffffffffffffffffffffffffffff021916908373ffffffffffffffffffffffffffffffffffffffff1602179055508073ffffffffffffffffffffffffffffffffffffffff1660008054906101000a900473ffffffffffffffffffffffffffffffffffffffff1673ffffffffffffffffffffffffffffffffffffffff167fed8889f560326eb138920d842192f0eb3dd22b4f139c87a2c57538e05bae127860405160405180910390a350565b600082825260208201905092915050565b7f43616e6e6f7420736574206f776e657220746f207a65726f0000000000000000600082015250565b60006200038f60188362000346565b91506200039c8262000357565b602082019050919050565b60006020820190508181036000830152620003c28162000380565b9050919050565b7f43616e6e6f74207472616e7366657220746f2073656c66000000000000000000600082015250565b60006200040160178362000346565b91506200040e82620003c9565b602082019050919050565b600060208201905081810360008301526200043481620003f2565b9050919050565b6080516137f76200045e600039600081816101d401526115cd01526137f76000f3fe6080604052600436106100865760003560e01c8063d453abee11610059578063d453abee1461011f578063dc95c4a71461013b578063ddc087b314610164578063ea7b4f7714610180578063f2fde38b146101a957610086565b80630ca761751461008b57806312c759e2146100b457806379ba5097146100dd5780638da5cb5b146100f4575b600080fd5b34801561009757600080fd5b506100b260048036038101906100ad9190612139565b6101d2565b005b3480156100c057600080fd5b506100db60048036038101906100d69190612222565b610294565b005b3480156100e957600080fd5b506100f26102e0565b005b34801561010057600080fd5b50610109610475565b604051610116919061225e565b60405180910390f35b610139600480360381019061013491906122d9565b61049e565b005b34801561014757600080fd5b50610162600480360381019061015d9190612222565b6106a0565b005b61017e600480360381019061017991906123b2565b6106ec565b005b34801561018c57600080fd5b506101a760048036038101906101a29190612452565b610909565b005b3480156101b557600080fd5b506101d060048036038101906101cb9190612222565b61093d565b005b7f000000000000000000000000000000000000000000000000000000000000000073ffffffffffffffffffffffffffffffffffffffff163373ffffffffffffffffffffffffffffffffffffffff1614610257576040517fc6829f8300000000000000000000000000000000000000000000000000000000815260040160405180910390fd5b610262838383610951565b827f85e1543bf2f84fe80c6badbce3648c8539ad1df4d2b3d822938ca0538be727e660405160405180910390a2505050565b61029c610e41565b80600660006101000a81548173ffffffffffffffffffffffffffffffffffffffff021916908373ffffffffffffffffffffffffffffffffffffffff16021790555050565b600160009054906101000a900473ffffffffffffffffffffffffffffffffffffffff1673ffffffffffffffffffffffffffffffffffffffff163373ffffffffffffffffffffffffffffffffffffffff1614610370576040517f08c379a0000000000000000000000000000000000000000000000000000000008152600401610367906124dc565b60405180910390fd5b60008060009054906101000a900473ffffffffffffffffffffffffffffffffffffffff169050336000806101000a81548173ffffffffffffffffffffffffffffffffffffffff021916908373ffffffffffffffffffffffffffffffffffffffff1602179055506000600160006101000a81548173ffffffffffffffffffffffffffffffffffffffff021916908373ffffffffffffffffffffffffffffffffffffffff1602179055503373ffffffffffffffffffffffffffffffffffffffff168173ffffffffffffffffffffffffffffffffffffffff167f8be0079c531659141344cd1fd0a4f28419497f9722a3daafe3b4186f6b6457e060405160405180910390a350565b60008060009054906101000a900473ffffffffffffffffffffffffffffffffffffffff16905090565b60006104b58383906104b09190612650565b610ed1565b9050336002600083815260200190815260200160002060000160006101000a81548173ffffffffffffffffffffffffffffffffffffffff021916908373ffffffffffffffffffffffffffffffffffffffff1602179055506000600267ffffffffffffffff8111156105295761052861200e565b5b60405190808252806020026020018201604052801561055c57816020015b60608152602001906001900390816105475790505b5090508383600181811061057357610572612665565b5b905060200281019061058591906126a3565b8080601f016020809104026020016040519081016040528093929190818152602001838380828437600081840152601f19601f82011690508083019250505050505050816000815181106105dc576105db612665565b5b6020026020010181905250838360028181106105fb576105fa612665565b5b905060200281019061060d91906126a3565b8080601f016020809104026020016040519081016040528093929190818152602001838380828437600081840152601f19601f820116905080830192505050505050508160018151811061066457610663612665565b5b602002602001018190525080600260008481526020019081526020016000206001019080519060200190610699929190611e23565b5050505050565b6106a8610e41565b80600760006101000a81548173ffffffffffffffffffffffffffffffffffffffff021916908373ffffffffffffffffffffffffffffffffffffffff16021790555050565b6000600660009054906101000a900473ffffffffffffffffffffffffffffffffffffffff1673ffffffffffffffffffffffffffffffffffffffff16636352211e836040518263ffffffff1660e01b81526004016107499190612715565b602060405180830381865afa158015610766573d6000803e3d6000fd5b505050506040513d601f19601f8201168201806040525081019061078a9190612745565b90503373ffffffffffffffffffffffffffffffffffffffff168173ffffffffffffffffffffffffffffffffffffffff16146107fa576040517f08c379a00000000000000000000000000000000000000000000000000000000081526004016107f1906127be565b60405180910390fd5b6000600267ffffffffffffffff8111156108175761081661200e565b5b60405190808252806020026020018201604052801561084a57816020015b60608152602001906001900390816108355790505b50905084848080601f016020809104026020016040519081016040528093929190818152602001838380828437600081840152601f19601f82011690508083019250505050505050816000815181106108a6576108a5612665565b5b60200260200101819052506108ba83610f59565b816001815181106108ce576108cd612665565b5b602002602001018190525060006108e482610ed1565b9050836003600083815260200190815260200160002060000181905550505050505050565b610911610e41565b80600160146101000a81548167ffffffffffffffff021916908367ffffffffffffffff16021790555050565b610945610e41565b61094e81611027565b50565b60008151148190610998576040517f08c379a000000000000000000000000000000000000000000000000000000000815260040161098f919061284c565b60405180910390fd5b506000602060ff16116109e0576040517f08c379a00000000000000000000000000000000000000000000000000000000081526004016109d7906128ba565b60405180910390fd5b6000826109ec90612917565b60001c9050600073ffffffffffffffffffffffffffffffffffffffff166002600086815260200190815260200160002060000160009054906101000a900473ffffffffffffffffffffffffffffffffffffffff1673ffffffffffffffffffffffffffffffffffffffff1614610b3c57600660009054906101000a900473ffffffffffffffffffffffffffffffffffffffff1673ffffffffffffffffffffffffffffffffffffffff166393388d186002600087815260200190815260200160002060000160009054906101000a900473ffffffffffffffffffffffffffffffffffffffff1660026000888152602001908152602001600020600101846040518463ffffffff1660e01b8152600401610b0593929190612b4e565b600060405180830381600087803b158015610b1f57600080fd5b505af1158015610b33573d6000803e3d6000fd5b50505050610e3b565b6000600360008681526020019081526020016000206000015414610dfd576000600360008681526020019081526020016000206000015490506000600660009054906101000a900473ffffffffffffffffffffffffffffffffffffffff1673ffffffffffffffffffffffffffffffffffffffff1663bbe343b4836040518263ffffffff1660e01b8152600401610bd29190612715565b600060405180830381865afa158015610bef573d6000803e3d6000fd5b505050506040513d6000823e3d601f19601f82011682018060405250810190610c189190612d3c565b60200151905060008184610c2c9190612db4565b90506000811315610d68576000600660009054906101000a900473ffffffffffffffffffffffffffffffffffffffff1673ffffffffffffffffffffffffffffffffffffffff16636352211e856040518263ffffffff1660e01b8152600401610c949190612715565b602060405180830381865afa158015610cb1573d6000803e3d6000fd5b505050506040513d601f19601f82011682018060405250810190610cd59190612745565b9050600760009054906101000a900473ffffffffffffffffffffffffffffffffffffffff1673ffffffffffffffffffffffffffffffffffffffff166340c10f1982846040518363ffffffff1660e01b8152600401610d34929190612de8565b600060405180830381600087803b158015610d4e57600080fd5b505af1158015610d62573d6000803e3d6000fd5b50505050505b600660009054906101000a900473ffffffffffffffffffffffffffffffffffffffff1673ffffffffffffffffffffffffffffffffffffffff166342966c68846040518263ffffffff1660e01b8152600401610dc39190612715565b600060405180830381600087803b158015610ddd57600080fd5b505af1158015610df1573d6000803e3d6000fd5b50505050505050610e3a565b836040517fd068bf5b000000000000000000000000000000000000000000000000000000008152600401610e319190612e20565b60405180910390fd5b5b50505050565b60008054906101000a900473ffffffffffffffffffffffffffffffffffffffff1673ffffffffffffffffffffffffffffffffffffffff163373ffffffffffffffffffffffffffffffffffffffff1614610ecf576040517f08c379a0000000000000000000000000000000000000000000000000000000008152600401610ec690612e87565b60405180910390fd5b565b6000610edb611e7c565b610f09604051806102800160405280610256815260200161356c61025691398261115390919063ffffffff16565b610f1c838261116490919063ffffffff16565b6000620493e09050610f50610f30836111ac565b600160149054906101000a900467ffffffffffffffff16836005546115c8565b92505050919050565b606060006001610f68846116ab565b01905060008167ffffffffffffffff811115610f8757610f8661200e565b5b6040519080825280601f01601f191660200182016040528015610fb95781602001600182028036833780820191505090505b509050600082602001820190505b60011561101c578080600190039150507f3031323334353637383961626364656600000000000000000000000000000000600a86061a8153600a85816110105761100f612ea7565b5b04945060008503610fc7575b819350505050919050565b3373ffffffffffffffffffffffffffffffffffffffff168173ffffffffffffffffffffffffffffffffffffffff1603611095576040517f08c379a000000000000000000000000000000000000000000000000000000000815260040161108c90612f22565b60405180910390fd5b80600160006101000a81548173ffffffffffffffffffffffffffffffffffffffff021916908373ffffffffffffffffffffffffffffffffffffffff1602179055508073ffffffffffffffffffffffffffffffffffffffff1660008054906101000a900473ffffffffffffffffffffffffffffffffffffffff1673ffffffffffffffffffffffffffffffffffffffff167fed8889f560326eb138920d842192f0eb3dd22b4f139c87a2c57538e05bae127860405160405180910390a350565b61116082600080846117fe565b5050565b600081510361119f576040517ffe936cb700000000000000000000000000000000000000000000000000000000815260040160405180910390fd5b808260a001819052505050565b606060006111bb6101006118a8565b90506112056040518060400160405280600c81526020017f636f64654c6f636174696f6e0000000000000000000000000000000000000000815250826118cf90919063ffffffff16565b61122e8360000151600281111561121f5761121e612f42565b5b826118f890919063ffffffff16565b6112766040518060400160405280600881526020017f6c616e6775616765000000000000000000000000000000000000000000000000815250826118cf90919063ffffffff16565b61129f836040015160008111156112905761128f612f42565b5b826118f890919063ffffffff16565b6112e76040518060400160405280600681526020017f736f757263650000000000000000000000000000000000000000000000000000815250826118cf90919063ffffffff16565b6112fe8360600151826118cf90919063ffffffff16565b60008360a001515111156113ba576113546040518060400160405280600481526020017f6172677300000000000000000000000000000000000000000000000000000000815250826118cf90919063ffffffff16565b61135d81611948565b60005b8360a00151518110156113af5761139e8460a00151828151811061138757611386612665565b5b6020026020010151836118cf90919063ffffffff16565b806113a890612f71565b9050611360565b506113b981611970565b5b600083608001515111156114fb57600060028111156113dc576113db612f42565b5b836020015160028111156113f3576113f2612f42565b5b0361142a576040517fa80d31f700000000000000000000000000000000000000000000000000000000815260040160405180910390fd5b6114726040518060400160405280600f81526020017f736563726574734c6f636174696f6e0000000000000000000000000000000000815250826118cf90919063ffffffff16565b61149b8360200151600281111561148c5761148b612f42565b5b826118f890919063ffffffff16565b6114e36040518060400160405280600781526020017f7365637265747300000000000000000000000000000000000000000000000000815250826118cf90919063ffffffff16565b6114fa83608001518261199890919063ffffffff16565b5b60008360c001515111156115b7576115516040518060400160405280600981526020017f6279746573417267730000000000000000000000000000000000000000000000815250826118cf90919063ffffffff16565b61155a81611948565b60005b8360c00151518110156115ac5761159b8460c00151828151811061158457611583612665565b5b60200260200101518361199890919063ffffffff16565b806115a590612f71565b905061155d565b506115b681611970565b5b806000015160000151915050919050565b6000807f000000000000000000000000000000000000000000000000000000000000000073ffffffffffffffffffffffffffffffffffffffff1663461d27628688600188886040518663ffffffff1660e01b815260040161162d95949392919061304e565b6020604051808303816000875af115801561164c573d6000803e3d6000fd5b505050506040513d601f19601f8201168201806040525081019061167091906130bd565b9050807f1131472297a800fee664d1d89cfa8f7676ff07189ecc53f80bbb5f4969099db860405160405180910390a280915050949350505050565b600080600090507a184f03e93ff9f4daa797ed6e38ed64bf6a1f0100000000000000008310611709577a184f03e93ff9f4daa797ed6e38ed64bf6a1f01000000000000000083816116ff576116fe612ea7565b5b0492506040810190505b6d04ee2d6d415b85acef81000000008310611746576d04ee2d6d415b85acef8100000000838161173c5761173b612ea7565b5b0492506020810190505b662386f26fc10000831061177557662386f26fc10000838161176b5761176a612ea7565b5b0492506010810190505b6305f5e100831061179e576305f5e100838161179457611793612ea7565b5b0492506008810190505b61271083106117c35761271083816117b9576117b8612ea7565b5b0492506004810190505b606483106117e657606483816117dc576117db612ea7565b5b0492506002810190505b600a83106117f5576001810190505b80915050919050565b6000815103611839576040517f22ce3edd00000000000000000000000000000000000000000000000000000000815260040160405180910390fd5b828460000190600281111561185157611850612f42565b5b9081600281111561186557611864612f42565b5b81525050818460400190600081111561188157611880612f42565b5b9081600081111561189557611894612f42565b5b8152505080846060018190525050505050565b6118b0611eee565b6118be8160000151836119c1565b506000816020018181525050919050565b6118dc8260038351611a3a565b6118f3818360000151611be390919063ffffffff16565b505050565b61191a60026005600660ff16901b178360000151611bff90919063ffffffff16565b5061194482826040516020016119309190612715565b604051602081830303815290604052611998565b5050565b611953816004611c69565b60018160200181815161196691906130ea565b9150818152505050565b61197b816007611c69565b60018160200181815161198e9190612db4565b9150818152505050565b6119a58260028351611a3a565b6119bc818360000151611be390919063ffffffff16565b505050565b6119c9611f0e565b60006020836119d8919061311e565b14611a04576020826119ea919061311e565b60206119f69190612db4565b82611a0191906130ea565b91505b818360200181815250506040518084526000815282810160200181811015611a2b57600080fd5b80604052505082905092915050565b60178167ffffffffffffffff1611611a7557611a6f8160058460ff16901b60ff16178460000151611bff90919063ffffffff16565b50611bde565b60ff8167ffffffffffffffff1611611ad357611aa8601860058460ff16901b178460000151611bff90919063ffffffff16565b50611acd8167ffffffffffffffff1660018560000151611c8f9092919063ffffffff16565b50611bdd565b61ffff8167ffffffffffffffff1611611b3257611b07601960058460ff16901b178460000151611bff90919063ffffffff16565b50611b2c8167ffffffffffffffff1660028560000151611c8f9092919063ffffffff16565b50611bdc565b63ffffffff8167ffffffffffffffff1611611b9357611b68601a60058460ff16901b178460000151611bff90919063ffffffff16565b50611b8d8167ffffffffffffffff1660048560000151611c8f9092919063ffffffff16565b50611bdb565b611bb4601b60058460ff16901b178460000151611bff90919063ffffffff16565b50611bd98167ffffffffffffffff1660088560000151611c8f9092919063ffffffff16565b505b5b5b5b505050565b611beb611f0e565b611bf783838451611d1c565b905092915050565b611c07611f0e565b600083600001515190506000600182611c2091906130ea565b905084602001518210611c4457611c4385600283611c3e919061314f565b611dff565b5b84516020838201018581538151831115611c5c578282525b5050849250505092915050565b611c8a601f60058360ff16901b178360000151611bff90919063ffffffff16565b505050565b611c97611f0e565b6000846000015151905060008184611caf91906130ea565b90508560200151811115611cd457611cd386600283611cce919061314f565b611dff565b5b6000600185610100611ce691906132c4565b611cf09190612db4565b905086518281018783198251161781528151841115611d0d578382525b50508693505050509392505050565b611d24611f0e565b8251821115611d3257600080fd5b6000846000015151905060008382611d4a91906130ea565b90508560200151811115611d6f57611d6e86600283611d69919061314f565b611dff565b5b60008087518051856020830101935080851115611d8a578482525b60208901925050505b60208610611dd15780518252602082611dac91906130ea565b9150602081611dbb91906130ea565b9050602086611dca9190612db4565b9550611d93565b60006001876020036101000a0390508019825116818451168181178552505050879450505050509392505050565b600082600001519050611e1283836119c1565b50611e1d8382611be3565b50505050565b828054828255906000526020600020908101928215611e6b579160200282015b82811115611e6a578251829081611e5a9190613499565b5091602001919060010190611e43565b5b509050611e789190611f28565b5090565b6040518060e0016040528060006002811115611e9b57611e9a612f42565b5b815260200160006002811115611eb457611eb3612f42565b5b8152602001600080811115611ecc57611ecb612f42565b5b8152602001606081526020016060815260200160608152602001606081525090565b6040518060400160405280611f01611f0e565b8152602001600081525090565b604051806040016040528060608152602001600081525090565b5b80821115611f485760008181611f3f9190611f4c565b50600101611f29565b5090565b508054611f58906129de565b6000825580601f10611f6a5750611f89565b601f016020900490600052602060002090810190611f889190611f8c565b5b50565b5b80821115611fa5576000816000905550600101611f8d565b5090565b6000604051905090565b600080fd5b600080fd5b6000819050919050565b611fd081611fbd565b8114611fdb57600080fd5b50565b600081359050611fed81611fc7565b92915050565b600080fd5b600080fd5b6000601f19601f8301169050919050565b7f4e487b7100000000000000000000000000000000000000000000000000000000600052604160045260246000fd5b61204682611ffd565b810181811067ffffffffffffffff821117156120655761206461200e565b5b80604052505050565b6000612078611fa9565b9050612084828261203d565b919050565b600067ffffffffffffffff8211156120a4576120a361200e565b5b6120ad82611ffd565b9050602081019050919050565b82818337600083830152505050565b60006120dc6120d784612089565b61206e565b9050828152602081018484840111156120f8576120f7611ff8565b5b6121038482856120ba565b509392505050565b600082601f8301126121205761211f611ff3565b5b81356121308482602086016120c9565b91505092915050565b60008060006060848603121561215257612151611fb3565b5b600061216086828701611fde565b935050602084013567ffffffffffffffff81111561218157612180611fb8565b5b61218d8682870161210b565b925050604084013567ffffffffffffffff8111156121ae576121ad611fb8565b5b6121ba8682870161210b565b9150509250925092565b600073ffffffffffffffffffffffffffffffffffffffff82169050919050565b60006121ef826121c4565b9050919050565b6121ff816121e4565b811461220a57600080fd5b50565b60008135905061221c816121f6565b92915050565b60006020828403121561223857612237611fb3565b5b60006122468482850161220d565b91505092915050565b612258816121e4565b82525050565b6000602082019050612273600083018461224f565b92915050565b600080fd5b600080fd5b60008083601f84011261229957612298611ff3565b5b8235905067ffffffffffffffff8111156122b6576122b5612279565b5b6020830191508360208202830111156122d2576122d161227e565b5b9250929050565b600080602083850312156122f0576122ef611fb3565b5b600083013567ffffffffffffffff81111561230e5761230d611fb8565b5b61231a85828601612283565b92509250509250929050565b60008083601f84011261233c5761233b611ff3565b5b8235905067ffffffffffffffff81111561235957612358612279565b5b6020830191508360018202830111156123755761237461227e565b5b9250929050565b6000819050919050565b61238f8161237c565b811461239a57600080fd5b50565b6000813590506123ac81612386565b92915050565b6000806000604084860312156123cb576123ca611fb3565b5b600084013567ffffffffffffffff8111156123e9576123e8611fb8565b5b6123f586828701612326565b935093505060206124088682870161239d565b9150509250925092565b600067ffffffffffffffff82169050919050565b61242f81612412565b811461243a57600080fd5b50565b60008135905061244c81612426565b92915050565b60006020828403121561246857612467611fb3565b5b60006124768482850161243d565b91505092915050565b600082825260208201905092915050565b7f4d7573742062652070726f706f736564206f776e657200000000000000000000600082015250565b60006124c660168361247f565b91506124d182612490565b602082019050919050565b600060208201905081810360008301526124f5816124b9565b9050919050565b600067ffffffffffffffff8211156125175761251661200e565b5b602082029050602081019050919050565b600067ffffffffffffffff8211156125435761254261200e565b5b61254c82611ffd565b9050602081019050919050565b600061256c61256784612528565b61206e565b90508281526020810184848401111561258857612587611ff8565b5b6125938482856120ba565b509392505050565b600082601f8301126125b0576125af611ff3565b5b81356125c0848260208601612559565b91505092915050565b60006125dc6125d7846124fc565b61206e565b905080838252602082019050602084028301858111156125ff576125fe61227e565b5b835b8181101561264657803567ffffffffffffffff81111561262457612623611ff3565b5b808601612631898261259b565b85526020850194505050602081019050612601565b5050509392505050565b600061265d3684846125c9565b905092915050565b7f4e487b7100000000000000000000000000000000000000000000000000000000600052603260045260246000fd5b600080fd5b600080fd5b600080fd5b600080833560016020038436030381126126c0576126bf612694565b5b80840192508235915067ffffffffffffffff8211156126e2576126e1612699565b5b6020830192506001820236038313156126fe576126fd61269e565b5b509250929050565b61270f8161237c565b82525050565b600060208201905061272a6000830184612706565b92915050565b60008151905061273f816121f6565b92915050565b60006020828403121561275b5761275a611fb3565b5b600061276984828501612730565b91505092915050565b7f53656e646572206d757374206f776e20746f6b656e0000000000000000000000600082015250565b60006127a860158361247f565b91506127b382612772565b602082019050919050565b600060208201905081810360008301526127d78161279b565b9050919050565b600081519050919050565b60005b838110156128075780820151818401526020810190506127ec565b60008484015250505050565b600061281e826127de565b612828818561247f565b93506128388185602086016127e9565b61284181611ffd565b840191505092915050565b600060208201905081810360008301526128668184612813565b905092915050565b7f726571756573744964206973207a65726f000000000000000000000000000000600082015250565b60006128a460118361247f565b91506128af8261286e565b602082019050919050565b600060208201905081810360008301526128d381612897565b9050919050565b600081519050919050565b6000819050602082019050919050565b60006129018251611fbd565b80915050919050565b600082821b905092915050565b6000612922826128da565b8261292c846128e5565b9050612937816128f5565b92506020821015612977576129727fffffffffffffffffffffffffffffffffffffffffffffffffffffffffffffffff8360200360080261290a565b831692505b5050919050565b600081549050919050565b600082825260208201905092915050565b60008190508160005260206000209050919050565b7f4e487b7100000000000000000000000000000000000000000000000000000000600052602260045260246000fd5b600060028204905060018216806129f657607f821691505b602082108103612a0957612a086129af565b5b50919050565b600082825260208201905092915050565b60008190508160005260206000209050919050565b60008154612a42816129de565b612a4c8186612a0f565b94506001821660008114612a675760018114612a7d57612ab0565b60ff198316865281151560200286019350612ab0565b612a8685612a20565b60005b83811015612aa857815481890152600182019150602081019050612a89565b808801955050505b50505092915050565b6000612ac58383612a35565b905092915050565b6000600182019050919050565b6000612ae58261297e565b612aef8185612989565b935083602082028501612b018561299a565b8060005b85811015612b3c57848403895281612b1d8582612ab9565b9450612b2883612acd565b925060208a01995050600181019050612b05565b50829750879550505050505092915050565b6000606082019050612b63600083018661224f565b8181036020830152612b758185612ada565b9050612b846040830184612706565b949350505050565b600080fd5b600080fd5b6000612ba9612ba484612528565b61206e565b905082815260208101848484011115612bc557612bc4611ff8565b5b612bd08482856127e9565b509392505050565b600082601f830112612bed57612bec611ff3565b5b8151612bfd848260208601612b96565b91505092915050565b6000612c19612c14846124fc565b61206e565b90508083825260208201905060208402830185811115612c3c57612c3b61227e565b5b835b81811015612c8357805167ffffffffffffffff811115612c6157612c60611ff3565b5b808601612c6e8982612bd8565b85526020850194505050602081019050612c3e565b5050509392505050565b600082601f830112612ca257612ca1611ff3565b5b8151612cb2848260208601612c06565b91505092915050565b600081519050612cca81612386565b92915050565b600060408284031215612ce657612ce5612b8c565b5b612cf0604061206e565b9050600082015167ffffffffffffffff811115612d1057612d0f612b91565b5b612d1c84828501612c8d565b6000830152506020612d3084828501612cbb565b60208301525092915050565b600060208284031215612d5257612d51611fb3565b5b600082015167ffffffffffffffff811115612d7057612d6f611fb8565b5b612d7c84828501612cd0565b91505092915050565b7f4e487b7100000000000000000000000000000000000000000000000000000000600052601160045260246000fd5b6000612dbf8261237c565b9150612dca8361237c565b9250828203905081811115612de257612de1612d85565b5b92915050565b6000604082019050612dfd600083018561224f565b612e0a6020830184612706565b9392505050565b612e1a81611fbd565b82525050565b6000602082019050612e356000830184612e11565b92915050565b7f4f6e6c792063616c6c61626c65206279206f776e657200000000000000000000600082015250565b6000612e7160168361247f565b9150612e7c82612e3b565b602082019050919050565b60006020820190508181036000830152612ea081612e64565b9050919050565b7f4e487b7100000000000000000000000000000000000000000000000000000000600052601260045260246000fd5b7f43616e6e6f74207472616e7366657220746f2073656c66000000000000000000600082015250565b6000612f0c60178361247f565b9150612f1782612ed6565b602082019050919050565b60006020820190508181036000830152612f3b81612eff565b9050919050565b7f4e487b7100000000000000000000000000000000000000000000000000000000600052602160045260246000fd5b6000612f7c8261237c565b91507fffffffffffffffffffffffffffffffffffffffffffffffffffffffffffffffff8203612fae57612fad612d85565b5b600182019050919050565b612fc281612412565b82525050565b600082825260208201905092915050565b6000612fe4826128da565b612fee8185612fc8565b9350612ffe8185602086016127e9565b61300781611ffd565b840191505092915050565b600061ffff82169050919050565b61302981613012565b82525050565b600063ffffffff82169050919050565b6130488161302f565b82525050565b600060a0820190506130636000830188612fb9565b81810360208301526130758187612fd9565b90506130846040830186613020565b613091606083018561303f565b61309e6080830184612e11565b9695505050505050565b6000815190506130b781611fc7565b92915050565b6000602082840312156130d3576130d2611fb3565b5b60006130e1848285016130a8565b91505092915050565b60006130f58261237c565b91506131008361237c565b925082820190508082111561311857613117612d85565b5b92915050565b60006131298261237c565b91506131348361237c565b92508261314457613143612ea7565b5b828206905092915050565b600061315a8261237c565b91506131658361237c565b92508282026131738161237c565b9150828204841483151761318a57613189612d85565b5b5092915050565b60008160011c9050919050565b6000808291508390505b60018511156131e8578086048111156131c4576131c3612d85565b5b60018516156131d35780820291505b80810290506131e185613191565b94506131a8565b94509492505050565b60008261320157600190506132bd565b8161320f57600090506132bd565b8160018114613225576002811461322f5761325e565b60019150506132bd565b60ff84111561324157613240612d85565b5b8360020a91508482111561325857613257612d85565b5b506132bd565b5060208310610133831016604e8410600b84101617156132935782820a90508381111561328e5761328d612d85565b5b6132bd565b6132a0848484600161319e565b925090508184048111156132b7576132b6612d85565b5b81810290505b9392505050565b60006132cf8261237c565b91506132da8361237c565b92506133077fffffffffffffffffffffffffffffffffffffffffffffffffffffffffffffffff84846131f1565b905092915050565b60006020601f8301049050919050565b60006008830261334f7fffffffffffffffffffffffffffffffffffffffffffffffffffffffffffffffff8261290a565b613359868361290a565b95508019841693508086168417925050509392505050565b6000819050919050565b600061339661339161338c8461237c565b613371565b61237c565b9050919050565b6000819050919050565b6133b08361337b565b6133c46133bc8261339d565b84845461331f565b825550505050565b600090565b6133d96133cc565b6133e48184846133a7565b505050565b5b81811015613408576133fd6000826133d1565b6001810190506133ea565b5050565b601f82111561344d5761341e81612a20565b6134278461330f565b81016020851015613436578190505b61344a6134428561330f565b8301826133e9565b50505b505050565b600082821c905092915050565b600061347060001984600802613452565b1980831691505092915050565b6000613489838361345f565b9150826002028217905092915050565b6134a2826127de565b67ffffffffffffffff8111156134bb576134ba61200e565b5b6134c582546129de565b6134d082828561340c565b600060209050601f83116001811461350357600084156134f1578287015190505b6134fb858261347d565b865550613563565b601f19841661351186612a20565b60005b8281101561353957848901518255600182019150602085019450602081019050613514565b868310156135565784890151613552601f89168261345f565b8355505b6001600288020188555050505b50505050505056fe636f6e7374206163636573735f746f6b656e203d20617267735b305d3b636f6e737420617274697374496473203d205b617267735b315d2c20617267735b325d5d3b6c657420746f74616c466f6c6c6f77657273203d20303b666f7220286c657420617274697374496e646578203d20303b20617274697374496e646578203c20323b20617274697374496e6465782b2b29207b2020636f6e7374206172746973744964203d206172746973744964735b617274697374496e6465785d3b2020636f6e737420617274697374203d2061776169742046756e6374696f6e732e6d616b654874747052657175657374287b2020202075726c3a206068747470733a2f2f6170692e73706f746966792e636f6d2f76312f617274697374732f247b61727469737449647d602c202020206d6574686f643a2027474554272c20202020686561646572733a207b20202020202027436f6e74656e742d54797065273a20276170706c69636174696f6e2f782d7777772d666f726d2d75726c656e636f646564272c202020202020417574686f72697a6174696f6e3a206042656172657220247b6163636573735f746f6b656e7d602c202020207d2c20207d293b2020696620286172746973742e6572726f7229207b202020207468726f77204572726f72282752657175657374206661696c656427293b20207d2020746f74616c466f6c6c6f77657273202b3d206172746973742e646174612e666f6c6c6f776572732e746f74616c3b7d72657475726e2046756e6374696f6e732e656e636f6465496e7432353628746f74616c466f6c6c6f77657273293ba26469706673582212203e0b31a4e8a514ae631f22480a3a2dc4aed8081128a4a3bb38f96dec5ba1ee3d64736f6c63430008140033",
  "linkReferences": {},
  "deployedLinkReferences": {}
}