{
  "_format": "hh-sol-artifact-1",
  "contractName": "Supergroups",
  "sourceName": "contracts/Supergroups.sol",
  "abi": [
    {
      "inputs": [
        {
          "internalType": "address",
          "name": "gameContract",
          "type": "address"
        }
      ],
      "stateMutability": "nonpayable",
      "type": "constructor"
    },
    {
      "inputs": [
        {
          "internalType": "address",
          "name": "sender",
          "type": "address"
        },
        {
          "internalType": "uint256",
          "name": "tokenId",
          "type": "uint256"
        },
        {
          "internalType": "address",
          "name": "owner",
          "type": "address"
        }
      ],
      "name": "ERC721IncorrectOwner",
      "type": "error"
    },
    {
      "inputs": [
        {
          "internalType": "address",
          "name": "operator",
          "type": "address"
        },
        {
          "internalType": "uint256",
          "name": "tokenId",
          "type": "uint256"
        }
      ],
      "name": "ERC721InsufficientApproval",
      "type": "error"
    },
    {
      "inputs": [
        {
          "internalType": "address",
          "name": "approver",
          "type": "address"
        }
      ],
      "name": "ERC721InvalidApprover",
      "type": "error"
    },
    {
      "inputs": [
        {
          "internalType": "address",
          "name": "operator",
          "type": "address"
        }
      ],
      "name": "ERC721InvalidOperator",
      "type": "error"
    },
    {
      "inputs": [
        {
          "internalType": "address",
          "name": "owner",
          "type": "address"
        }
      ],
      "name": "ERC721InvalidOwner",
      "type": "error"
    },
    {
      "inputs": [
        {
          "internalType": "address",
          "name": "receiver",
          "type": "address"
        }
      ],
      "name": "ERC721InvalidReceiver",
      "type": "error"
    },
    {
      "inputs": [
        {
          "internalType": "address",
          "name": "sender",
          "type": "address"
        }
      ],
      "name": "ERC721InvalidSender",
      "type": "error"
    },
    {
      "inputs": [
        {
          "internalType": "uint256",
          "name": "tokenId",
          "type": "uint256"
        }
      ],
      "name": "ERC721NonexistentToken",
      "type": "error"
    },
    {
      "inputs": [
        {
          "internalType": "address",
          "name": "owner",
          "type": "address"
        }
      ],
      "name": "OwnableInvalidOwner",
      "type": "error"
    },
    {
      "inputs": [
        {
          "internalType": "address",
          "name": "account",
          "type": "address"
        }
      ],
      "name": "OwnableUnauthorizedAccount",
      "type": "error"
    },
    {
      "anonymous": false,
      "inputs": [
        {
          "indexed": true,
          "internalType": "address",
          "name": "owner",
          "type": "address"
        },
        {
          "indexed": true,
          "internalType": "address",
          "name": "approved",
          "type": "address"
        },
        {
          "indexed": true,
          "internalType": "uint256",
          "name": "tokenId",
          "type": "uint256"
        }
      ],
      "name": "Approval",
      "type": "event"
    },
    {
      "anonymous": false,
      "inputs": [
        {
          "indexed": true,
          "internalType": "address",
          "name": "owner",
          "type": "address"
        },
        {
          "indexed": true,
          "internalType": "address",
          "name": "operator",
          "type": "address"
        },
        {
          "indexed": false,
          "internalType": "bool",
          "name": "approved",
          "type": "bool"
        }
      ],
      "name": "ApprovalForAll",
      "type": "event"
    },
    {
      "anonymous": false,
      "inputs": [
        {
          "indexed": true,
          "internalType": "address",
          "name": "previousOwner",
          "type": "address"
        },
        {
          "indexed": true,
          "internalType": "address",
          "name": "newOwner",
          "type": "address"
        }
      ],
      "name": "OwnershipTransferred",
      "type": "event"
    },
    {
      "anonymous": false,
      "inputs": [
        {
          "indexed": true,
          "internalType": "address",
          "name": "from",
          "type": "address"
        },
        {
          "indexed": true,
          "internalType": "address",
          "name": "to",
          "type": "address"
        },
        {
          "indexed": true,
          "internalType": "uint256",
          "name": "tokenId",
          "type": "uint256"
        }
      ],
      "name": "Transfer",
      "type": "event"
    },
    {
      "inputs": [],
      "name": "_nextTokenId",
      "outputs": [
        {
          "internalType": "uint256",
          "name": "",
          "type": "uint256"
        }
      ],
      "stateMutability": "view",
      "type": "function"
    },
    {
      "inputs": [
        {
          "internalType": "address",
          "name": "to",
          "type": "address"
        },
        {
          "internalType": "uint256",
          "name": "tokenId",
          "type": "uint256"
        }
      ],
      "name": "approve",
      "outputs": [],
      "stateMutability": "nonpayable",
      "type": "function"
    },
    {
      "inputs": [
        {
          "internalType": "address",
          "name": "owner",
          "type": "address"
        }
      ],
      "name": "balanceOf",
      "outputs": [
        {
          "internalType": "uint256",
          "name": "",
          "type": "uint256"
        }
      ],
      "stateMutability": "view",
      "type": "function"
    },
    {
      "inputs": [
        {
          "internalType": "uint256",
          "name": "tokenId",
          "type": "uint256"
        }
      ],
      "name": "burn",
      "outputs": [],
      "stateMutability": "nonpayable",
      "type": "function"
    },
    {
      "inputs": [
        {
          "internalType": "uint256",
          "name": "tokenId",
          "type": "uint256"
        }
      ],
      "name": "getApproved",
      "outputs": [
        {
          "internalType": "address",
          "name": "",
          "type": "address"
        }
      ],
      "stateMutability": "view",
      "type": "function"
    },
    {
      "inputs": [
        {
          "internalType": "uint256",
          "name": "tokenId",
          "type": "uint256"
        }
      ],
      "name": "getSupergroupInfo",
      "outputs": [
        {
          "components": [
            {
              "internalType": "string[]",
              "name": "artistIds",
              "type": "string[]"
            },
            {
              "internalType": "uint256",
              "name": "numberOfFollowers",
              "type": "uint256"
            }
          ],
          "internalType": "struct ISupergroups.SupergroupInfo",
          "name": "",
          "type": "tuple"
        }
      ],
      "stateMutability": "view",
      "type": "function"
    },
    {
      "inputs": [
        {
          "internalType": "address",
          "name": "owner",
          "type": "address"
        },
        {
          "internalType": "address",
          "name": "operator",
          "type": "address"
        }
      ],
      "name": "isApprovedForAll",
      "outputs": [
        {
          "internalType": "bool",
          "name": "",
          "type": "bool"
        }
      ],
      "stateMutability": "view",
      "type": "function"
    },
    {
      "inputs": [],
      "name": "name",
      "outputs": [
        {
          "internalType": "string",
          "name": "",
          "type": "string"
        }
      ],
      "stateMutability": "view",
      "type": "function"
    },
    {
      "inputs": [],
      "name": "owner",
      "outputs": [
        {
          "internalType": "address",
          "name": "",
          "type": "address"
        }
      ],
      "stateMutability": "view",
      "type": "function"
    },
    {
      "inputs": [
        {
          "internalType": "uint256",
          "name": "tokenId",
          "type": "uint256"
        }
      ],
      "name": "ownerOf",
      "outputs": [
        {
          "internalType": "address",
          "name": "",
          "type": "address"
        }
      ],
      "stateMutability": "view",
      "type": "function"
    },
    {
      "inputs": [],
      "name": "renounceOwnership",
      "outputs": [],
      "stateMutability": "nonpayable",
      "type": "function"
    },
    {
      "inputs": [
        {
          "internalType": "address",
          "name": "to",
          "type": "address"
        },
        {
          "internalType": "string[]",
          "name": "artistIds",
          "type": "string[]"
        },
        {
          "internalType": "uint256",
          "name": "numberOfFollowers",
          "type": "uint256"
        }
      ],
      "name": "safeMint",
      "outputs": [],
      "stateMutability": "nonpayable",
      "type": "function"
    },
    {
      "inputs": [
        {
          "internalType": "address",
          "name": "from",
          "type": "address"
        },
        {
          "internalType": "address",
          "name": "to",
          "type": "address"
        },
        {
          "internalType": "uint256",
          "name": "tokenId",
          "type": "uint256"
        }
      ],
      "name": "safeTransferFrom",
      "outputs": [],
      "stateMutability": "nonpayable",
      "type": "function"
    },
    {
      "inputs": [
        {
          "internalType": "address",
          "name": "from",
          "type": "address"
        },
        {
          "internalType": "address",
          "name": "to",
          "type": "address"
        },
        {
          "internalType": "uint256",
          "name": "tokenId",
          "type": "uint256"
        },
        {
          "internalType": "bytes",
          "name": "data",
          "type": "bytes"
        }
      ],
      "name": "safeTransferFrom",
      "outputs": [],
      "stateMutability": "nonpayable",
      "type": "function"
    },
    {
      "inputs": [
        {
          "internalType": "address",
          "name": "operator",
          "type": "address"
        },
        {
          "internalType": "bool",
          "name": "approved",
          "type": "bool"
        }
      ],
      "name": "setApprovalForAll",
      "outputs": [],
      "stateMutability": "nonpayable",
      "type": "function"
    },
    {
      "inputs": [
        {
          "internalType": "bytes4",
          "name": "interfaceId",
          "type": "bytes4"
        }
      ],
      "name": "supportsInterface",
      "outputs": [
        {
          "internalType": "bool",
          "name": "",
          "type": "bool"
        }
      ],
      "stateMutability": "view",
      "type": "function"
    },
    {
      "inputs": [],
      "name": "symbol",
      "outputs": [
        {
          "internalType": "string",
          "name": "",
          "type": "string"
        }
      ],
      "stateMutability": "view",
      "type": "function"
    },
    {
      "inputs": [
        {
          "internalType": "uint256",
          "name": "tokenId",
          "type": "uint256"
        }
      ],
      "name": "tokenURI",
      "outputs": [
        {
          "internalType": "string",
          "name": "",
          "type": "string"
        }
      ],
      "stateMutability": "view",
      "type": "function"
    },
    {
      "inputs": [
        {
          "internalType": "address",
          "name": "from",
          "type": "address"
        },
        {
          "internalType": "address",
          "name": "to",
          "type": "address"
        },
        {
          "internalType": "uint256",
          "name": "tokenId",
          "type": "uint256"
        }
      ],
      "name": "transferFrom",
      "outputs": [],
      "stateMutability": "nonpayable",
      "type": "function"
    },
    {
      "inputs": [
        {
          "internalType": "address",
          "name": "newOwner",
          "type": "address"
        }
      ],
      "name": "transferOwnership",
      "outputs": [],
      "stateMutability": "nonpayable",
      "type": "function"
    }
  ],
  "bytecode": "0x608060405260016007553480156200001657600080fd5b50604051620031d2380380620031d283398181016040528101906200003c9190620002ce565b336040518060400160405280600b81526020017f537570657267726f7570730000000000000000000000000000000000000000008152506040518060400160405280600381526020017f53504700000000000000000000000000000000000000000000000000000000008152508160009081620000ba91906200057a565b508060019081620000cc91906200057a565b505050600073ffffffffffffffffffffffffffffffffffffffff168173ffffffffffffffffffffffffffffffffffffffff1603620001445760006040517f1e4fbdf70000000000000000000000000000000000000000000000000000000081526004016200013b919062000672565b60405180910390fd5b62000155816200019e60201b60201c565b5080600860006101000a81548173ffffffffffffffffffffffffffffffffffffffff021916908373ffffffffffffffffffffffffffffffffffffffff160217905550506200068f565b6000600660009054906101000a900473ffffffffffffffffffffffffffffffffffffffff16905081600660006101000a81548173ffffffffffffffffffffffffffffffffffffffff021916908373ffffffffffffffffffffffffffffffffffffffff1602179055508173ffffffffffffffffffffffffffffffffffffffff168173ffffffffffffffffffffffffffffffffffffffff167f8be0079c531659141344cd1fd0a4f28419497f9722a3daafe3b4186f6b6457e060405160405180910390a35050565b600080fd5b600073ffffffffffffffffffffffffffffffffffffffff82169050919050565b6000620002968262000269565b9050919050565b620002a88162000289565b8114620002b457600080fd5b50565b600081519050620002c8816200029d565b92915050565b600060208284031215620002e757620002e662000264565b5b6000620002f784828501620002b7565b91505092915050565b600081519050919050565b7f4e487b7100000000000000000000000000000000000000000000000000000000600052604160045260246000fd5b7f4e487b7100000000000000000000000000000000000000000000000000000000600052602260045260246000fd5b600060028204905060018216806200038257607f821691505b6020821081036200039857620003976200033a565b5b50919050565b60008190508160005260206000209050919050565b60006020601f8301049050919050565b600082821b905092915050565b600060088302620004027fffffffffffffffffffffffffffffffffffffffffffffffffffffffffffffffff82620003c3565b6200040e8683620003c3565b95508019841693508086168417925050509392505050565b6000819050919050565b6000819050919050565b60006200045b620004556200044f8462000426565b62000430565b62000426565b9050919050565b6000819050919050565b62000477836200043a565b6200048f620004868262000462565b848454620003d0565b825550505050565b600090565b620004a662000497565b620004b38184846200046c565b505050565b5b81811015620004db57620004cf6000826200049c565b600181019050620004b9565b5050565b601f8211156200052a57620004f4816200039e565b620004ff84620003b3565b810160208510156200050f578190505b620005276200051e85620003b3565b830182620004b8565b50505b505050565b600082821c905092915050565b60006200054f600019846008026200052f565b1980831691505092915050565b60006200056a83836200053c565b9150826002028217905092915050565b620005858262000300565b67ffffffffffffffff811115620005a157620005a06200030b565b5b620005ad825462000369565b620005ba828285620004df565b600060209050601f831160018114620005f25760008415620005dd578287015190505b620005e985826200055c565b86555062000659565b601f19841662000602866200039e565b60005b828110156200062c5784890151825560018201915060208501945060208101905062000605565b868310156200064c578489015162000648601f8916826200053c565b8355505b6001600288020188555050505b505050505050565b6200066c8162000289565b82525050565b600060208201905062000689600083018462000661565b92915050565b612b33806200069f6000396000f3fe608060405234801561001057600080fd5b506004361061012c5760003560e01c8063715018a6116100ad578063b88d4fde11610071578063b88d4fde1461031b578063bbe343b414610337578063c87b56dd14610367578063e985e9c514610397578063f2fde38b146103c75761012c565b8063715018a61461029d5780638da5cb5b146102a757806393388d18146102c557806395d89b41146102e1578063a22cb465146102ff5761012c565b806342842e0e116100f457806342842e0e146101e757806342966c68146102035780634a60f6201461021f5780636352211e1461023d57806370a082311461026d5761012c565b806301ffc9a71461013157806306fdde0314610161578063081812fc1461017f578063095ea7b3146101af57806323b872dd146101cb575b600080fd5b61014b60048036038101906101469190611d18565b6103e3565b6040516101589190611d60565b60405180910390f35b6101696104c5565b6040516101769190611e0b565b60405180910390f35b61019960048036038101906101949190611e63565b610557565b6040516101a69190611ed1565b60405180910390f35b6101c960048036038101906101c49190611f18565b610573565b005b6101e560048036038101906101e09190611f58565b610589565b005b61020160048036038101906101fc9190611f58565b61068b565b005b61021d60048036038101906102189190611e63565b6106ab565b005b610227610711565b6040516102349190611fba565b60405180910390f35b61025760048036038101906102529190611e63565b610717565b6040516102649190611ed1565b60405180910390f35b61028760048036038101906102829190611fd5565b610729565b6040516102949190611fba565b60405180910390f35b6102a56107e3565b005b6102af6107f7565b6040516102bc9190611ed1565b60405180910390f35b6102df60048036038101906102da919061221d565b610821565b005b6102e96108ec565b6040516102f69190611e0b565b60405180910390f35b610319600480360381019061031491906122b8565b61097e565b005b61033560048036038101906103309190612399565b610994565b005b610351600480360381019061034c9190611e63565b6109b1565b60405161035e9190612574565b60405180910390f35b610381600480360381019061037c9190611e63565b610ac1565b60405161038e9190611e0b565b60405180910390f35b6103b160048036038101906103ac9190612596565b610b2a565b6040516103be9190611d60565b60405180910390f35b6103e160048036038101906103dc9190611fd5565b610bbe565b005b60007f80ac58cd000000000000000000000000000000000000000000000000000000007bffffffffffffffffffffffffffffffffffffffffffffffffffffffff1916827bffffffffffffffffffffffffffffffffffffffffffffffffffffffff191614806104ae57507f5b5e139f000000000000000000000000000000000000000000000000000000007bffffffffffffffffffffffffffffffffffffffffffffffffffffffff1916827bffffffffffffffffffffffffffffffffffffffffffffffffffffffff1916145b806104be57506104bd82610c44565b5b9050919050565b6060600080546104d490612605565b80601f016020809104026020016040519081016040528092919081815260200182805461050090612605565b801561054d5780601f106105225761010080835404028352916020019161054d565b820191906000526020600020905b81548152906001019060200180831161053057829003601f168201915b5050505050905090565b600061056282610cae565b5061056c82610d36565b9050919050565b6105858282610580610d73565b610d7b565b5050565b600073ffffffffffffffffffffffffffffffffffffffff168273ffffffffffffffffffffffffffffffffffffffff16036105fb5760006040517f64a0ae920000000000000000000000000000000000000000000000000000000081526004016105f29190611ed1565b60405180910390fd5b600061060f838361060a610d73565b610d8d565b90508373ffffffffffffffffffffffffffffffffffffffff168173ffffffffffffffffffffffffffffffffffffffff1614610685578382826040517f64283d7b00000000000000000000000000000000000000000000000000000000815260040161067c93929190612636565b60405180910390fd5b50505050565b6106a683838360405180602001604052806000815250610994565b505050565b600860009054906101000a900473ffffffffffffffffffffffffffffffffffffffff1673ffffffffffffffffffffffffffffffffffffffff163373ffffffffffffffffffffffffffffffffffffffff161461070557600080fd5b61070e81610fa7565b50565b60075481565b600061072282610cae565b9050919050565b60008073ffffffffffffffffffffffffffffffffffffffff168273ffffffffffffffffffffffffffffffffffffffff160361079c5760006040517f89c62b640000000000000000000000000000000000000000000000000000000081526004016107939190611ed1565b60405180910390fd5b600360008373ffffffffffffffffffffffffffffffffffffffff1673ffffffffffffffffffffffffffffffffffffffff168152602001908152602001600020549050919050565b6107eb61102d565b6107f560006110b4565b565b6000600660009054906101000a900473ffffffffffffffffffffffffffffffffffffffff16905090565b600860009054906101000a900473ffffffffffffffffffffffffffffffffffffffff1673ffffffffffffffffffffffffffffffffffffffff163373ffffffffffffffffffffffffffffffffffffffff161461087b57600080fd5b6000600760008154809291906108909061269c565b9190505590506108a0848261117a565b826009600083815260200190815260200160002060000190805190602001906108ca929190611bb8565b5081600960008381526020019081526020016000206001018190555050505050565b6060600180546108fb90612605565b80601f016020809104026020016040519081016040528092919081815260200182805461092790612605565b80156109745780601f1061094957610100808354040283529160200191610974565b820191906000526020600020905b81548152906001019060200180831161095757829003601f168201915b5050505050905090565b610990610989610d73565b8383611198565b5050565b61099f848484610589565b6109ab84848484611307565b50505050565b6109b9611c11565b6009600083815260200190815260200160002060405180604001604052908160008201805480602002602001604051908101604052809291908181526020016000905b82821015610aa8578382906000526020600020018054610a1b90612605565b80601f0160208091040260200160405190810160405280929190818152602001828054610a4790612605565b8015610a945780601f10610a6957610100808354040283529160200191610a94565b820191906000526020600020905b815481529060010190602001808311610a7757829003601f168201915b5050505050815260200190600101906109fc565b5050505081526020016001820154815250509050919050565b6060610acc82610cae565b506000610ad76114be565b90506000815111610af75760405180602001604052806000815250610b22565b80610b01846114fb565b604051602001610b12929190612720565b6040516020818303038152906040525b915050919050565b6000600560008473ffffffffffffffffffffffffffffffffffffffff1673ffffffffffffffffffffffffffffffffffffffff16815260200190815260200160002060008373ffffffffffffffffffffffffffffffffffffffff1673ffffffffffffffffffffffffffffffffffffffff16815260200190815260200160002060009054906101000a900460ff16905092915050565b610bc661102d565b600073ffffffffffffffffffffffffffffffffffffffff168173ffffffffffffffffffffffffffffffffffffffff1603610c385760006040517f1e4fbdf7000000000000000000000000000000000000000000000000000000008152600401610c2f9190611ed1565b60405180910390fd5b610c41816110b4565b50565b60007f01ffc9a7000000000000000000000000000000000000000000000000000000007bffffffffffffffffffffffffffffffffffffffffffffffffffffffff1916827bffffffffffffffffffffffffffffffffffffffffffffffffffffffff1916149050919050565b600080610cba836115c9565b9050600073ffffffffffffffffffffffffffffffffffffffff168173ffffffffffffffffffffffffffffffffffffffff1603610d2d57826040517f7e273289000000000000000000000000000000000000000000000000000000008152600401610d249190611fba565b60405180910390fd5b80915050919050565b60006004600083815260200190815260200160002060009054906101000a900473ffffffffffffffffffffffffffffffffffffffff169050919050565b600033905090565b610d888383836001611606565b505050565b600080610d99846115c9565b9050600073ffffffffffffffffffffffffffffffffffffffff168373ffffffffffffffffffffffffffffffffffffffff1614610ddb57610dda8184866117cb565b5b600073ffffffffffffffffffffffffffffffffffffffff168173ffffffffffffffffffffffffffffffffffffffff1614610e6c57610e1d600085600080611606565b6001600360008373ffffffffffffffffffffffffffffffffffffffff1673ffffffffffffffffffffffffffffffffffffffff168152602001908152602001600020600082825403925050819055505b600073ffffffffffffffffffffffffffffffffffffffff168573ffffffffffffffffffffffffffffffffffffffff1614610eef576001600360008773ffffffffffffffffffffffffffffffffffffffff1673ffffffffffffffffffffffffffffffffffffffff168152602001908152602001600020600082825401925050819055505b846002600086815260200190815260200160002060006101000a81548173ffffffffffffffffffffffffffffffffffffffff021916908373ffffffffffffffffffffffffffffffffffffffff160217905550838573ffffffffffffffffffffffffffffffffffffffff168273ffffffffffffffffffffffffffffffffffffffff167fddf252ad1be2c89b69c2b068fc378daa952ba7f163c4a11628f55a4df523b3ef60405160405180910390a4809150509392505050565b6000610fb66000836000610d8d565b9050600073ffffffffffffffffffffffffffffffffffffffff168173ffffffffffffffffffffffffffffffffffffffff160361102957816040517f7e2732890000000000000000000000000000000000000000000000000000000081526004016110209190611fba565b60405180910390fd5b5050565b611035610d73565b73ffffffffffffffffffffffffffffffffffffffff166110536107f7565b73ffffffffffffffffffffffffffffffffffffffff16146110b257611076610d73565b6040517f118cdaa70000000000000000000000000000000000000000000000000000000081526004016110a99190611ed1565b60405180910390fd5b565b6000600660009054906101000a900473ffffffffffffffffffffffffffffffffffffffff16905081600660006101000a81548173ffffffffffffffffffffffffffffffffffffffff021916908373ffffffffffffffffffffffffffffffffffffffff1602179055508173ffffffffffffffffffffffffffffffffffffffff168173ffffffffffffffffffffffffffffffffffffffff167f8be0079c531659141344cd1fd0a4f28419497f9722a3daafe3b4186f6b6457e060405160405180910390a35050565b61119482826040518060200160405280600081525061188f565b5050565b600073ffffffffffffffffffffffffffffffffffffffff168273ffffffffffffffffffffffffffffffffffffffff160361120957816040517f5b08ba180000000000000000000000000000000000000000000000000000000081526004016112009190611ed1565b60405180910390fd5b80600560008573ffffffffffffffffffffffffffffffffffffffff1673ffffffffffffffffffffffffffffffffffffffff16815260200190815260200160002060008473ffffffffffffffffffffffffffffffffffffffff1673ffffffffffffffffffffffffffffffffffffffff16815260200190815260200160002060006101000a81548160ff0219169083151502179055508173ffffffffffffffffffffffffffffffffffffffff168373ffffffffffffffffffffffffffffffffffffffff167f17307eab39ab6107e8899845ad3d59bd9653f200f220920489ca2b5937696c31836040516112fa9190611d60565b60405180910390a3505050565b60008373ffffffffffffffffffffffffffffffffffffffff163b11156114b8578273ffffffffffffffffffffffffffffffffffffffff1663150b7a0261134b610d73565b8685856040518563ffffffff1660e01b815260040161136d9493929190612799565b6020604051808303816000875af19250505080156113a957506040513d601f19601f820116820180604052508101906113a691906127fa565b60015b61142d573d80600081146113d9576040519150601f19603f3d011682016040523d82523d6000602084013e6113de565b606091505b50600081510361142557836040517f64a0ae9200000000000000000000000000000000000000000000000000000000815260040161141c9190611ed1565b60405180910390fd5b805181602001fd5b63150b7a0260e01b7bffffffffffffffffffffffffffffffffffffffffffffffffffffffff1916817bffffffffffffffffffffffffffffffffffffffffffffffffffffffff1916146114b657836040517f64a0ae920000000000000000000000000000000000000000000000000000000081526004016114ad9190611ed1565b60405180910390fd5b505b50505050565b60606040518060400160405280601181526020017f68747470733a2f2f726f636b737461722f000000000000000000000000000000815250905090565b60606000600161150a846118ab565b01905060008167ffffffffffffffff81111561152957611528612007565b5b6040519080825280601f01601f19166020018201604052801561155b5781602001600182028036833780820191505090505b509050600082602001820190505b6001156115be578080600190039150507f3031323334353637383961626364656600000000000000000000000000000000600a86061a8153600a85816115b2576115b1612827565b5b04945060008503611569575b819350505050919050565b60006002600083815260200190815260200160002060009054906101000a900473ffffffffffffffffffffffffffffffffffffffff169050919050565b808061163f5750600073ffffffffffffffffffffffffffffffffffffffff168273ffffffffffffffffffffffffffffffffffffffff1614155b1561177357600061164f84610cae565b9050600073ffffffffffffffffffffffffffffffffffffffff168373ffffffffffffffffffffffffffffffffffffffff16141580156116ba57508273ffffffffffffffffffffffffffffffffffffffff168173ffffffffffffffffffffffffffffffffffffffff1614155b80156116cd57506116cb8184610b2a565b155b1561170f57826040517fa9fbf51f0000000000000000000000000000000000000000000000000000000081526004016117069190611ed1565b60405180910390fd5b811561177157838573ffffffffffffffffffffffffffffffffffffffff168273ffffffffffffffffffffffffffffffffffffffff167f8c5be1e5ebec7d5bd14f71427d1e84f3dd0314c0f7b2291e5b200ac8c7c3b92560405160405180910390a45b505b836004600085815260200190815260200160002060006101000a81548173ffffffffffffffffffffffffffffffffffffffff021916908373ffffffffffffffffffffffffffffffffffffffff16021790555050505050565b6117d68383836119fe565b61188a57600073ffffffffffffffffffffffffffffffffffffffff168373ffffffffffffffffffffffffffffffffffffffff160361184b57806040517f7e2732890000000000000000000000000000000000000000000000000000000081526004016118429190611fba565b60405180910390fd5b81816040517f177e802f000000000000000000000000000000000000000000000000000000008152600401611881929190612856565b60405180910390fd5b505050565b6118998383611abf565b6118a66000848484611307565b505050565b600080600090507a184f03e93ff9f4daa797ed6e38ed64bf6a1f0100000000000000008310611909577a184f03e93ff9f4daa797ed6e38ed64bf6a1f01000000000000000083816118ff576118fe612827565b5b0492506040810190505b6d04ee2d6d415b85acef81000000008310611946576d04ee2d6d415b85acef8100000000838161193c5761193b612827565b5b0492506020810190505b662386f26fc10000831061197557662386f26fc10000838161196b5761196a612827565b5b0492506010810190505b6305f5e100831061199e576305f5e100838161199457611993612827565b5b0492506008810190505b61271083106119c35761271083816119b9576119b8612827565b5b0492506004810190505b606483106119e657606483816119dc576119db612827565b5b0492506002810190505b600a83106119f5576001810190505b80915050919050565b60008073ffffffffffffffffffffffffffffffffffffffff168373ffffffffffffffffffffffffffffffffffffffff1614158015611ab657508273ffffffffffffffffffffffffffffffffffffffff168473ffffffffffffffffffffffffffffffffffffffff161480611a775750611a768484610b2a565b5b80611ab557508273ffffffffffffffffffffffffffffffffffffffff16611a9d83610d36565b73ffffffffffffffffffffffffffffffffffffffff16145b5b90509392505050565b600073ffffffffffffffffffffffffffffffffffffffff168273ffffffffffffffffffffffffffffffffffffffff1603611b315760006040517f64a0ae92000000000000000000000000000000000000000000000000000000008152600401611b289190611ed1565b60405180910390fd5b6000611b3f83836000610d8d565b9050600073ffffffffffffffffffffffffffffffffffffffff168173ffffffffffffffffffffffffffffffffffffffff1614611bb35760006040517f73c6ac6e000000000000000000000000000000000000000000000000000000008152600401611baa9190611ed1565b60405180910390fd5b505050565b828054828255906000526020600020908101928215611c00579160200282015b82811115611bff578251829081611bef9190612a2b565b5091602001919060010190611bd8565b5b509050611c0d9190611c2b565b5090565b604051806040016040528060608152602001600081525090565b5b80821115611c4b5760008181611c429190611c4f565b50600101611c2c565b5090565b508054611c5b90612605565b6000825580601f10611c6d5750611c8c565b601f016020900490600052602060002090810190611c8b9190611c8f565b5b50565b5b80821115611ca8576000816000905550600101611c90565b5090565b6000604051905090565b600080fd5b600080fd5b60007fffffffff0000000000000000000000000000000000000000000000000000000082169050919050565b611cf581611cc0565b8114611d0057600080fd5b50565b600081359050611d1281611cec565b92915050565b600060208284031215611d2e57611d2d611cb6565b5b6000611d3c84828501611d03565b91505092915050565b60008115159050919050565b611d5a81611d45565b82525050565b6000602082019050611d756000830184611d51565b92915050565b600081519050919050565b600082825260208201905092915050565b60005b83811015611db5578082015181840152602081019050611d9a565b60008484015250505050565b6000601f19601f8301169050919050565b6000611ddd82611d7b565b611de78185611d86565b9350611df7818560208601611d97565b611e0081611dc1565b840191505092915050565b60006020820190508181036000830152611e258184611dd2565b905092915050565b6000819050919050565b611e4081611e2d565b8114611e4b57600080fd5b50565b600081359050611e5d81611e37565b92915050565b600060208284031215611e7957611e78611cb6565b5b6000611e8784828501611e4e565b91505092915050565b600073ffffffffffffffffffffffffffffffffffffffff82169050919050565b6000611ebb82611e90565b9050919050565b611ecb81611eb0565b82525050565b6000602082019050611ee66000830184611ec2565b92915050565b611ef581611eb0565b8114611f0057600080fd5b50565b600081359050611f1281611eec565b92915050565b60008060408385031215611f2f57611f2e611cb6565b5b6000611f3d85828601611f03565b9250506020611f4e85828601611e4e565b9150509250929050565b600080600060608486031215611f7157611f70611cb6565b5b6000611f7f86828701611f03565b9350506020611f9086828701611f03565b9250506040611fa186828701611e4e565b9150509250925092565b611fb481611e2d565b82525050565b6000602082019050611fcf6000830184611fab565b92915050565b600060208284031215611feb57611fea611cb6565b5b6000611ff984828501611f03565b91505092915050565b600080fd5b7f4e487b7100000000000000000000000000000000000000000000000000000000600052604160045260246000fd5b61203f82611dc1565b810181811067ffffffffffffffff8211171561205e5761205d612007565b5b80604052505050565b6000612071611cac565b905061207d8282612036565b919050565b600067ffffffffffffffff82111561209d5761209c612007565b5b602082029050602081019050919050565b600080fd5b600080fd5b600067ffffffffffffffff8211156120d3576120d2612007565b5b6120dc82611dc1565b9050602081019050919050565b82818337600083830152505050565b600061210b612106846120b8565b612067565b905082815260208101848484011115612127576121266120b3565b5b6121328482856120e9565b509392505050565b600082601f83011261214f5761214e612002565b5b813561215f8482602086016120f8565b91505092915050565b600061217b61217684612082565b612067565b9050808382526020820190506020840283018581111561219e5761219d6120ae565b5b835b818110156121e557803567ffffffffffffffff8111156121c3576121c2612002565b5b8086016121d0898261213a565b855260208501945050506020810190506121a0565b5050509392505050565b600082601f83011261220457612203612002565b5b8135612214848260208601612168565b91505092915050565b60008060006060848603121561223657612235611cb6565b5b600061224486828701611f03565b935050602084013567ffffffffffffffff81111561226557612264611cbb565b5b612271868287016121ef565b925050604061228286828701611e4e565b9150509250925092565b61229581611d45565b81146122a057600080fd5b50565b6000813590506122b28161228c565b92915050565b600080604083850312156122cf576122ce611cb6565b5b60006122dd85828601611f03565b92505060206122ee858286016122a3565b9150509250929050565b600067ffffffffffffffff82111561231357612312612007565b5b61231c82611dc1565b9050602081019050919050565b600061233c612337846122f8565b612067565b905082815260208101848484011115612358576123576120b3565b5b6123638482856120e9565b509392505050565b600082601f8301126123805761237f612002565b5b8135612390848260208601612329565b91505092915050565b600080600080608085870312156123b3576123b2611cb6565b5b60006123c187828801611f03565b94505060206123d287828801611f03565b93505060406123e387828801611e4e565b925050606085013567ffffffffffffffff81111561240457612403611cbb565b5b6124108782880161236b565b91505092959194509250565b600081519050919050565b600082825260208201905092915050565b6000819050602082019050919050565b600082825260208201905092915050565b600061246482611d7b565b61246e8185612448565b935061247e818560208601611d97565b61248781611dc1565b840191505092915050565b600061249e8383612459565b905092915050565b6000602082019050919050565b60006124be8261241c565b6124c88185612427565b9350836020820285016124da85612438565b8060005b8581101561251657848403895281516124f78582612492565b9450612502836124a6565b925060208a019950506001810190506124de565b50829750879550505050505092915050565b61253181611e2d565b82525050565b6000604083016000830151848203600086015261255482826124b3565b91505060208301516125696020860182612528565b508091505092915050565b6000602082019050818103600083015261258e8184612537565b905092915050565b600080604083850312156125ad576125ac611cb6565b5b60006125bb85828601611f03565b92505060206125cc85828601611f03565b9150509250929050565b7f4e487b7100000000000000000000000000000000000000000000000000000000600052602260045260246000fd5b6000600282049050600182168061261d57607f821691505b6020821081036126305761262f6125d6565b5b50919050565b600060608201905061264b6000830186611ec2565b6126586020830185611fab565b6126656040830184611ec2565b949350505050565b7f4e487b7100000000000000000000000000000000000000000000000000000000600052601160045260246000fd5b60006126a782611e2d565b91507fffffffffffffffffffffffffffffffffffffffffffffffffffffffffffffffff82036126d9576126d861266d565b5b600182019050919050565b600081905092915050565b60006126fa82611d7b565b61270481856126e4565b9350612714818560208601611d97565b80840191505092915050565b600061272c82856126ef565b915061273882846126ef565b91508190509392505050565b600081519050919050565b600082825260208201905092915050565b600061276b82612744565b612775818561274f565b9350612785818560208601611d97565b61278e81611dc1565b840191505092915050565b60006080820190506127ae6000830187611ec2565b6127bb6020830186611ec2565b6127c86040830185611fab565b81810360608301526127da8184612760565b905095945050505050565b6000815190506127f481611cec565b92915050565b6000602082840312156128105761280f611cb6565b5b600061281e848285016127e5565b91505092915050565b7f4e487b7100000000000000000000000000000000000000000000000000000000600052601260045260246000fd5b600060408201905061286b6000830185611ec2565b6128786020830184611fab565b9392505050565b60008190508160005260206000209050919050565b60006020601f8301049050919050565b600082821b905092915050565b6000600883026128e17fffffffffffffffffffffffffffffffffffffffffffffffffffffffffffffffff826128a4565b6128eb86836128a4565b95508019841693508086168417925050509392505050565b6000819050919050565b600061292861292361291e84611e2d565b612903565b611e2d565b9050919050565b6000819050919050565b6129428361290d565b61295661294e8261292f565b8484546128b1565b825550505050565b600090565b61296b61295e565b612976818484612939565b505050565b5b8181101561299a5761298f600082612963565b60018101905061297c565b5050565b601f8211156129df576129b08161287f565b6129b984612894565b810160208510156129c8578190505b6129dc6129d485612894565b83018261297b565b50505b505050565b600082821c905092915050565b6000612a02600019846008026129e4565b1980831691505092915050565b6000612a1b83836129f1565b9150826002028217905092915050565b612a3482611d7b565b67ffffffffffffffff811115612a4d57612a4c612007565b5b612a578254612605565b612a6282828561299e565b600060209050601f831160018114612a955760008415612a83578287015190505b612a8d8582612a0f565b865550612af5565b601f198416612aa38661287f565b60005b82811015612acb57848901518255600182019150602085019450602081019050612aa6565b86831015612ae85784890151612ae4601f8916826129f1565b8355505b6001600288020188555050505b50505050505056fea26469706673582212206376a78375852aea934588fae227095befb681e60d0b94995854bf40badb879e64736f6c63430008140033",
  "linkReferences": {},
  "deployedLinkReferences": {}
}